{
  "_format": "hh-sol-artifact-1",
  "contractName": "VulnerableBank",
  "sourceName": "contracts/VulnerableBank.sol",
  "abi": [
    {
      "inputs": [
        {
          "internalType": "address",
          "name": "",
          "type": "address"
        }
      ],
      "name": "balances",
      "outputs": [
        {
          "internalType": "uint256",
          "name": "",
          "type": "uint256"
        }
      ],
      "stateMutability": "view",
      "type": "function"
    },
    {
      "inputs": [],
      "name": "deposit",
      "outputs": [],
      "stateMutability": "payable",
      "type": "function"
    },
    {
      "inputs": [],
      "name": "emergencyWithdraw",
      "outputs": [],
      "stateMutability": "nonpayable",
      "type": "function"
    },
    {
      "inputs": [],
      "name": "isLuckyDay",
      "outputs": [
        {
          "internalType": "bool",
          "name": "",
          "type": "bool"
        }
      ],
      "stateMutability": "view",
      "type": "function"
    },
    {
      "inputs": [
        {
          "internalType": "uint256",
          "name": "amount",
          "type": "uint256"
        }
      ],
      "name": "withdraw",
      "outputs": [],
      "stateMutability": "nonpayable",
      "type": "function"
    },
    {
      "stateMutability": "payable",
      "type": "receive"
    }
  ],
  "bytecode": "0x608060405234801561001057600080fd5b506104f6806100206000396000f3fe60806040526004361061004e5760003560e01c806320e8ecdb1461005a57806327e235e3146100845780632e1a7d4d146100bf578063d0e30db0146100e1578063db2e21bc146100e957600080fd5b3661005557005b600080fd5b34801561006657600080fd5b5061006f6100fe565b60405190151581526020015b60405180910390f35b34801561009057600080fd5b506100b161009f366004610413565b60006020819052908152604090205481565b60405190815260200161007b565b3480156100cb57600080fd5b506100df6100da366004610443565b610111565b005b6100df6102c8565b3480156100f557600080fd5b506100df61033e565b600061010b600f4261045c565b15919050565b600081116101665760405162461bcd60e51b815260206004820152601d60248201527f416d6f756e74206d7573742062652067726561746572207468616e203000000060448201526064015b60405180910390fd5b336000908152602081905260409020548111156101bc5760405162461bcd60e51b8152602060048201526014602482015273496e73756666696369656e742062616c616e636560601b604482015260640161015d565b804710156102165760405162461bcd60e51b815260206004820152602160248201527f436f6e74726163742068617320696e73756666696369656e742062616c616e636044820152606560f81b606482015260840161015d565b604051600090339083908381818185875af1925050503d8060008114610258576040519150601f19603f3d011682016040523d82523d6000602084013e61025d565b606091505b50509050806102a05760405162461bcd60e51b815260206004820152600f60248201526e151c985b9cd9995c8819985a5b1959608a1b604482015260640161015d565b33600090815260208190526040812080548492906102bf908490610494565b90915550505050565b600034116103185760405162461bcd60e51b815260206004820152601d60248201527f416d6f756e74206d7573742062652067726561746572207468616e2030000000604482015260640161015d565b33600090815260208190526040812080543492906103379084906104ad565b9091555050565b47806103855760405162461bcd60e51b81526020600482015260166024820152754e6f2062616c616e636520746f20776974686472617760501b604482015260640161015d565b604051600090339083908381818185875af1925050503d80600081146103c7576040519150601f19603f3d011682016040523d82523d6000602084013e6103cc565b606091505b505090508061040f5760405162461bcd60e51b815260206004820152600f60248201526e151c985b9cd9995c8819985a5b1959608a1b604482015260640161015d565b5050565b60006020828403121561042557600080fd5b81356001600160a01b038116811461043c57600080fd5b9392505050565b60006020828403121561045557600080fd5b5035919050565b60008261047957634e487b7160e01b600052601260045260246000fd5b500690565b634e487b7160e01b600052601160045260246000fd5b818103818111156104a7576104a761047e565b92915050565b808201808211156104a7576104a761047e56fea26469706673582212208efb594e665b8dca308101d7342bc4b3379b641dc60fcb97dddf7fa3f9dd9a3e64736f6c63430008130033",
  "linkReferences": {},
  "deployedLinkReferences": {}
}